{
  "contractName": "EventTickets",
  "abi": [
    {
      "inputs": [
        {
          "internalType": "uint256",
          "name": "_price",
          "type": "uint256"
        },
        {
          "internalType": "uint256",
          "name": "_tickets",
          "type": "uint256"
        },
        {
          "internalType": "address",
          "name": "_controller",
          "type": "address"
        }
      ],
      "stateMutability": "nonpayable",
      "type": "constructor"
    },
    {
      "inputs": [],
      "name": "controller",
      "outputs": [
        {
          "internalType": "address",
          "name": "",
          "type": "address"
        }
      ],
      "stateMutability": "view",
      "type": "function"
    },
    {
      "inputs": [],
      "name": "organizer",
      "outputs": [
        {
          "internalType": "address",
          "name": "",
          "type": "address"
        }
      ],
      "stateMutability": "view",
      "type": "function"
    },
    {
      "inputs": [],
      "name": "ticketPrice",
      "outputs": [
        {
          "internalType": "uint256",
          "name": "",
          "type": "uint256"
        }
      ],
      "stateMutability": "view",
      "type": "function"
    },
    {
      "inputs": [
        {
          "internalType": "address",
          "name": "",
          "type": "address"
        }
      ],
      "name": "tickets",
      "outputs": [
        {
          "internalType": "bool",
          "name": "valid",
          "type": "bool"
        },
        {
          "internalType": "bool",
          "name": "used",
          "type": "bool"
        }
      ],
      "stateMutability": "view",
      "type": "function"
    },
    {
      "inputs": [],
      "name": "ticketsLeft",
      "outputs": [
        {
          "internalType": "uint256",
          "name": "",
          "type": "uint256"
        }
      ],
      "stateMutability": "view",
      "type": "function"
    },
    {
      "inputs": [],
      "name": "buyTicket",
      "outputs": [],
      "stateMutability": "payable",
      "type": "function"
    },
    {
      "inputs": [
        {
          "internalType": "address",
          "name": "_buyer",
          "type": "address"
        }
      ],
      "name": "validateTicket",
      "outputs": [],
      "stateMutability": "nonpayable",
      "type": "function"
    },
    {
      "inputs": [],
      "name": "withdraw",
      "outputs": [],
      "stateMutability": "nonpayable",
      "type": "function"
    }
  ],
  "bytecode": "0x608060405234801562000010575f80fd5b5060405162000fce38038062000fce833981810160405281019062000036919062000264565b5f83116200007b576040517f08c379a000000000000000000000000000000000000000000000000000000000815260040162000072906200031b565b60405180910390fd5b5f8211620000c0576040517f08c379a0000000000000000000000000000000000000000000000000000000008152600401620000b79062000389565b60405180910390fd5b5f73ffffffffffffffffffffffffffffffffffffffff168173ffffffffffffffffffffffffffffffffffffffff160362000131576040517f08c379a000000000000000000000000000000000000000000000000000000000815260040162000128906200041d565b60405180910390fd5b335f806101000a81548173ffffffffffffffffffffffffffffffffffffffff021916908373ffffffffffffffffffffffffffffffffffffffff16021790555082600281905550816003819055508060015f6101000a81548173ffffffffffffffffffffffffffffffffffffffff021916908373ffffffffffffffffffffffffffffffffffffffff1602179055505050506200043d565b5f80fd5b5f819050919050565b620001df81620001cb565b8114620001ea575f80fd5b50565b5f81519050620001fd81620001d4565b92915050565b5f73ffffffffffffffffffffffffffffffffffffffff82169050919050565b5f6200022e8262000203565b9050919050565b620002408162000222565b81146200024b575f80fd5b50565b5f815190506200025e8162000235565b92915050565b5f805f606084860312156200027e576200027d620001c7565b5b5f6200028d86828701620001ed565b9350506020620002a086828701620001ed565b9250506040620002b3868287016200024e565b9150509250925092565b5f82825260208201905092915050565b7f5469636b6574207072696365206d757374206265203e203000000000000000005f82015250565b5f62000303601883620002bd565b91506200031082620002cd565b602082019050919050565b5f6020820190508181035f8301526200033481620002f5565b9050919050565b7f4e756d626572206f66207469636b657473206d757374206265203e20300000005f82015250565b5f62000371601d83620002bd565b91506200037e826200033b565b602082019050919050565b5f6020820190508181035f830152620003a28162000363565b9050919050565b7f436f6e74726f6c6c65722063616e6e6f74206265207a65726f206164647265735f8201527f7300000000000000000000000000000000000000000000000000000000000000602082015250565b5f62000405602183620002bd565b91506200041282620003a9565b604082019050919050565b5f6020820190508181035f8301526200043681620003f7565b9050919050565b610b83806200044b5f395ff3fe60806040526004361061007a575f3560e01c80636cab5e5b1161004d5780636cab5e5b146101105780636dcbf2a31461013a578063edca914c14610177578063f77c4791146101815761007a565b80631209b1f61461007e5780633ccfd60b146100a857806348221741146100be57806361203265146100e6575b5f80fd5b348015610089575f80fd5b506100926101ab565b60405161009f9190610706565b60405180910390f35b3480156100b3575f80fd5b506100bc6101b1565b005b3480156100c9575f80fd5b506100e460048036038101906100df919061077d565b6102a3565b005b3480156100f1575f80fd5b506100fa6104a5565b60405161010791906107b7565b60405180910390f35b34801561011b575f80fd5b506101246104c8565b6040516101319190610706565b60405180910390f35b348015610145575f80fd5b50610160600480360381019061015b919061077d565b6104ce565b60405161016e9291906107ea565b60405180910390f35b61017f610506565b005b34801561018c575f80fd5b506101956106c9565b6040516101a291906107b7565b60405180910390f35b60025481565b5f8054906101000a900473ffffffffffffffffffffffffffffffffffffffff1673ffffffffffffffffffffffffffffffffffffffff163373ffffffffffffffffffffffffffffffffffffffff161461023e576040517f08c379a00000000000000000000000000000000000000000000000000000000081526004016102359061086b565b60405180910390fd5b5f8054906101000a900473ffffffffffffffffffffffffffffffffffffffff1673ffffffffffffffffffffffffffffffffffffffff166108fc4790811502906040515f60405180830381858888f193505050501580156102a0573d5f803e3d5ffd5b50565b60015f9054906101000a900473ffffffffffffffffffffffffffffffffffffffff1673ffffffffffffffffffffffffffffffffffffffff163373ffffffffffffffffffffffffffffffffffffffff1614610332576040517f08c379a0000000000000000000000000000000000000000000000000000000008152600401610329906108d3565b60405180910390fd5b60045f8273ffffffffffffffffffffffffffffffffffffffff1673ffffffffffffffffffffffffffffffffffffffff1681526020019081526020015f205f015f9054906101000a900460ff166103bd576040517f08c379a00000000000000000000000000000000000000000000000000000000081526004016103b49061093b565b60405180910390fd5b60045f8273ffffffffffffffffffffffffffffffffffffffff1673ffffffffffffffffffffffffffffffffffffffff1681526020019081526020015f205f0160019054906101000a900460ff161561044a576040517f08c379a0000000000000000000000000000000000000000000000000000000008152600401610441906109a3565b60405180910390fd5b600160045f8373ffffffffffffffffffffffffffffffffffffffff1673ffffffffffffffffffffffffffffffffffffffff1681526020019081526020015f205f0160016101000a81548160ff02191690831515021790555050565b5f8054906101000a900473ffffffffffffffffffffffffffffffffffffffff1681565b60035481565b6004602052805f5260405f205f91509050805f015f9054906101000a900460ff1690805f0160019054906101000a900460ff16905082565b600254341461054a576040517f08c379a000000000000000000000000000000000000000000000000000000000815260040161054190610a0b565b60405180910390fd5b5f6003541161058e576040517f08c379a000000000000000000000000000000000000000000000000000000000815260040161058590610a73565b60405180910390fd5b60045f3373ffffffffffffffffffffffffffffffffffffffff1673ffffffffffffffffffffffffffffffffffffffff1681526020019081526020015f205f015f9054906101000a900460ff161561061a576040517f08c379a000000000000000000000000000000000000000000000000000000000815260040161061190610adb565b60405180910390fd5b60405180604001604052806001151581526020015f151581525060045f3373ffffffffffffffffffffffffffffffffffffffff1673ffffffffffffffffffffffffffffffffffffffff1681526020019081526020015f205f820151815f015f6101000a81548160ff0219169083151502179055506020820151815f0160016101000a81548160ff02191690831515021790555090505060035f8154809291906106c290610b26565b9190505550565b60015f9054906101000a900473ffffffffffffffffffffffffffffffffffffffff1681565b5f819050919050565b610700816106ee565b82525050565b5f6020820190506107195f8301846106f7565b92915050565b5f80fd5b5f73ffffffffffffffffffffffffffffffffffffffff82169050919050565b5f61074c82610723565b9050919050565b61075c81610742565b8114610766575f80fd5b50565b5f8135905061077781610753565b92915050565b5f602082840312156107925761079161071f565b5b5f61079f84828501610769565b91505092915050565b6107b181610742565b82525050565b5f6020820190506107ca5f8301846107a8565b92915050565b5f8115159050919050565b6107e4816107d0565b82525050565b5f6040820190506107fd5f8301856107db565b61080a60208301846107db565b9392505050565b5f82825260208201905092915050565b7f4e6f74206f7267616e697a6572000000000000000000000000000000000000005f82015250565b5f610855600d83610811565b915061086082610821565b602082019050919050565b5f6020820190508181035f83015261088281610849565b9050919050565b7f4e6f7420636f6e74726f6c6c65720000000000000000000000000000000000005f82015250565b5f6108bd600e83610811565b91506108c882610889565b602082019050919050565b5f6020820190508181035f8301526108ea816108b1565b9050919050565b7f496e76616c6964207469636b65740000000000000000000000000000000000005f82015250565b5f610925600e83610811565b9150610930826108f1565b602082019050919050565b5f6020820190508181035f83015261095281610919565b9050919050565b7f416c7265616479207573656400000000000000000000000000000000000000005f82015250565b5f61098d600c83610811565b915061099882610959565b602082019050919050565b5f6020820190508181035f8301526109ba81610981565b9050919050565b7f57726f6e672070726963650000000000000000000000000000000000000000005f82015250565b5f6109f5600b83610811565b9150610a00826109c1565b602082019050919050565b5f6020820190508181035f830152610a22816109e9565b9050919050565b7f536f6c64206f75740000000000000000000000000000000000000000000000005f82015250565b5f610a5d600883610811565b9150610a6882610a29565b602082019050919050565b5f6020820190508181035f830152610a8a81610a51565b9050919050565b7f416c7265616479206f776e73207469636b6574000000000000000000000000005f82015250565b5f610ac5601383610811565b9150610ad082610a91565b602082019050919050565b5f6020820190508181035f830152610af281610ab9565b9050919050565b7f4e487b71000000000000000000000000000000000000000000000000000000005f52601160045260245ffd5b5f610b30826106ee565b91505f8203610b4257610b41610af9565b5b60018203905091905056fea2646970667358221220f22301f788b8478a5544020d848d060b7466453eeb7eafd57d60190f5cc84dff64736f6c63430008140033",
  "immutableReferences": {},
  "source": "// SPDX-License-Identifier: MIT\npragma solidity ^0.8.20;\n\ncontract EventTickets {\n\n    address public organizer;\n    address public controller;\n    uint public ticketPrice;\n    uint public ticketsLeft;\n\n    struct Ticket {\n        bool valid;\n        bool used;\n    }\n\n    mapping(address => Ticket) public tickets;\n\n    constructor(\n        uint _price,\n        uint _tickets,\n        address _controller\n    ) {\n        // Validacija argument\n        require(_price > 0, \"Ticket price must be > 0\");\n        require(_tickets > 0, \"Number of tickets must be > 0\");\n        require(_controller != address(0), \"Controller cannot be zero address\");\n\n        organizer = msg.sender;\n        ticketPrice = _price;\n        ticketsLeft = _tickets;\n        controller = _controller;\n    }\n\n    function buyTicket() external payable {\n        require(msg.value == ticketPrice, \"Wrong price\");\n        require(ticketsLeft > 0, \"Sold out\");\n        require(!tickets[msg.sender].valid, \"Already owns ticket\");\n\n        tickets[msg.sender] = Ticket(true, false);\n        ticketsLeft--;\n    }\n\n    function validateTicket(address _buyer) external {\n        require(msg.sender == controller, \"Not controller\");\n        require(tickets[_buyer].valid, \"Invalid ticket\");\n        require(!tickets[_buyer].used, \"Already used\");\n\n        tickets[_buyer].used = true;\n    }\n\n    function withdraw() external {\n        require(msg.sender == organizer, \"Not organizer\");\n        payable(organizer).transfer(address(this).balance);\n    }\n}\n",
  "sourcePath": "/home/xxmp/Desktop/blockchain/contract/contracts/EventTickets.sol",
  "compiler": {
    "name": "solc",
    "version": "0.8.20+commit.a1b79de6.Emscripten.clang"
  },
  "schemaVersion": "3.4.16",
  "updatedAt": "2025-12-17T21:34:48.751Z",
  "devdoc": {
    "kind": "dev",
    "methods": {},
    "version": 1
  },
  "userdoc": {
    "kind": "user",
    "methods": {},
    "version": 1
  }
}